{"abi":[{"type":"constructor","inputs":[],"stateMutability":"nonpayable"},{"type":"function","name":"batchUpdateScores","inputs":[{"name":"users","type":"address[]","internalType":"address[]"},{"name":"scores","type":"uint256[]","internalType":"uint256[]"}],"outputs":[],"stateMutability":"nonpayable"},{"type":"function","name":"cancelOwnershipHandover","inputs":[],"outputs":[],"stateMutability":"payable"},{"type":"function","name":"completeOwnershipHandover","inputs":[{"name":"pendingOwner","type":"address","internalType":"address"}],"outputs":[],"stateMutability":"payable"},{"type":"function","name":"eip712Domain","inputs":[],"outputs":[{"name":"fields","type":"bytes1","internalType":"bytes1"},{"name":"name","type":"string","internalType":"string"},{"name":"version","type":"string","internalType":"string"},{"name":"chainId","type":"uint256","internalType":"uint256"},{"name":"verifyingContract","type":"address","internalType":"address"},{"name":"salt","type":"bytes32","internalType":"bytes32"},{"name":"extensions","type":"uint256[]","internalType":"uint256[]"}],"stateMutability":"view"},{"type":"function","name":"getAggregatedScore","inputs":[{"name":"user","type":"address","internalType":"address"}],"outputs":[{"name":"total","type":"uint256","internalType":"uint256"}],"stateMutability":"view"},{"type":"function","name":"getLinkedWallets","inputs":[{"name":"main","type":"address","internalType":"address"}],"outputs":[{"name":"","type":"address[]","internalType":"address[]"}],"stateMutability":"view"},{"type":"function","name":"hashTypedData","inputs":[{"name":"structHash","type":"bytes32","internalType":"bytes32"}],"outputs":[{"name":"","type":"bytes32","internalType":"bytes32"}],"stateMutability":"view"},{"type":"function","name":"linkWallet","inputs":[{"name":"secondary","type":"address","internalType":"address"},{"name":"deadline","type":"uint256","internalType":"uint256"},{"name":"signature","type":"bytes","internalType":"bytes"}],"outputs":[],"stateMutability":"nonpayable"},{"type":"function","name":"nonces","inputs":[{"name":"","type":"address","internalType":"address"}],"outputs":[{"name":"","type":"uint256","internalType":"uint256"}],"stateMutability":"view"},{"type":"function","name":"owner","inputs":[],"outputs":[{"name":"result","type":"address","internalType":"address"}],"stateMutability":"view"},{"type":"function","name":"ownershipHandoverExpiresAt","inputs":[{"name":"pendingOwner","type":"address","internalType":"address"}],"outputs":[{"name":"result","type":"uint256","internalType":"uint256"}],"stateMutability":"view"},{"type":"function","name":"renounceOwnership","inputs":[],"outputs":[],"stateMutability":"payable"},{"type":"function","name":"reputationScores","inputs":[{"name":"","type":"address","internalType":"address"}],"outputs":[{"name":"","type":"uint256","internalType":"uint256"}],"stateMutability":"view"},{"type":"function","name":"reputationTiers","inputs":[{"name":"user","type":"address","internalType":"address"}],"outputs":[{"name":"","type":"string","internalType":"string"}],"stateMutability":"view"},{"type":"function","name":"requestOwnershipHandover","inputs":[],"outputs":[],"stateMutability":"payable"},{"type":"function","name":"transferOwnership","inputs":[{"name":"newOwner","type":"address","internalType":"address"}],"outputs":[],"stateMutability":"payable"},{"type":"function","name":"unlinkWallet","inputs":[{"name":"secondary","type":"address","internalType":"address"}],"outputs":[],"stateMutability":"nonpayable"},{"type":"function","name":"updateScore","inputs":[{"name":"user","type":"address","internalType":"address"},{"name":"score","type":"uint256","internalType":"uint256"}],"outputs":[],"stateMutability":"nonpayable"},{"type":"function","name":"walletLinks","inputs":[{"name":"","type":"address","internalType":"address"}],"outputs":[{"name":"","type":"address","internalType":"address"}],"stateMutability":"view"},{"type":"event","name":"OwnershipHandoverCanceled","inputs":[{"name":"pendingOwner","type":"address","indexed":true,"internalType":"address"}],"anonymous":false},{"type":"event","name":"OwnershipHandoverRequested","inputs":[{"name":"pendingOwner","type":"address","indexed":true,"internalType":"address"}],"anonymous":false},{"type":"event","name":"OwnershipTransferred","inputs":[{"name":"oldOwner","type":"address","indexed":true,"internalType":"address"},{"name":"newOwner","type":"address","indexed":true,"internalType":"address"}],"anonymous":false},{"type":"error","name":"AlreadyInitialized","inputs":[]},{"type":"error","name":"AlreadyLinked","inputs":[]},{"type":"error","name":"ArrayLengthMismatch","inputs":[]},{"type":"error","name":"CannotLinkSelf","inputs":[]},{"type":"error","name":"DeadlineExpired","inputs":[]},{"type":"error","name":"InvalidSignature","inputs":[]},{"type":"error","name":"NewOwnerIsZeroAddress","inputs":[]},{"type":"error","name":"NoHandoverRequest","inputs":[]},{"type":"error","name":"NotLinked","inputs":[]},{"type":"error","name":"Unauthorized","inputs":[]}],"bytecode":{"object":"0x610120604052348015610010575f80fd5b50306080524660a05260608061005960408051808201825260088152674261736552616e6b60c01b602080830191909152825180840190935260018352603160f81b9083015291565b815160209283012081519183019190912060c082905260e0819052604080517f8b73c3c69bb8fe3d512ecc4cf759cc79239f7b179b0ffacaa9a75d522b39400f8152938401929092529082015246606082015230608082015260a0902061010052506100c69050336100cb565b610106565b6001600160a01b0316638b78c6d819819055805f7f8be0079c531659141344cd1fd0a4f28419497f9722a3daafe3b4186f6b6457e08180a350565b60805160a05160c05160e051610100516110bb6101435f395f610b3301525f610bed01525f610bc701525f610b7701525f610b5401526110bb5ff3fe608060405260043610610110575f3560e01c806365d977241161009d578063cdb0ec6b11610062578063cdb0ec6b146102dd578063f04e283e14610309578063f2fde38b1461031c578063fe0438b21461032f578063fee81cf41461035a575f80fd5b806365d977241461024c578063715018a61461026b5780637ecebe001461027357806384b0196e1461029e5780638da5cb5b146102c5575f80fd5b8063340458da116100e3578063340458da146101bb5780635027dbe2146101da57806354d1f13d146101f9578063552b94ec146102015780636575f6aa1461022d575f80fd5b8063025ee6481461011457806316b75f6114610165578063256929621461018657806326f97f771461018e575b5f80fd5b34801561011f575f80fd5b5061014861012e366004610d45565b5f602081905290815260409020546001600160a01b031681565b6040516001600160a01b0390911681526020015b60405180910390f35b348015610170575f80fd5b5061018461017f366004610d65565b61038b565b005b61018461057e565b348015610199575f80fd5b506101ad6101a8366004610d45565b6105cb565b60405190815260200161015c565b3480156101c6575f80fd5b506101846101d5366004610e2d565b6106a6565b3480156101e5575f80fd5b506101846101f4366004610d45565b61072f565b610184610892565b34801561020c575f80fd5b5061022061021b366004610d45565b6108cb565b60405161015c9190610ed7565b348015610238575f80fd5b506101ad610247366004610ee9565b6109ba565b348015610257575f80fd5b50610184610266366004610f00565b6109ca565b6101846109ed565b34801561027e575f80fd5b506101ad61028d366004610d45565b60036020525f908152604090205481565b3480156102a9575f80fd5b506102b2610a00565b60405161015c9796959493929190610f28565b3480156102d0575f80fd5b50638b78c6d81954610148565b3480156102e8575f80fd5b506102fc6102f7366004610d45565b610a5b565b60405161015c9190610fbf565b610184610317366004610d45565b610ace565b61018461032a366004610d45565b610b0b565b34801561033a575f80fd5b506101ad610349366004610d45565b60026020525f908152604090205481565b348015610365575f80fd5b506101ad610374366004610d45565b63389a75e1600c9081525f91909152602090205490565b824211156103ac57604051631ab7da6b60e01b815260040160405180910390fd5b336001600160a01b038516036103d55760405163d34fcce560e01b815260040160405180910390fd5b6001600160a01b038481165f90815260208190526040902054161561040d57604051635fb2b52360e11b815260040160405180910390fd5b6001600160a01b0384165f90815260036020526040812080547fbcf7e5646cf7f4056d175923bf6fbc4a233c408a652bf06d71358fc40246aa3e9133918891856104568361101f565b909155506040805160208101959095526001600160a01b039384169085015291166060830152608082015260a0810185905260c0016040516020818303038152906040528051906020012090505f6104ad82610b31565b90505f6104ef8286868080601f0160208091040260200160405190810160405280939291908181526020018383808284375f92019190915250610c4792505050565b9050866001600160a01b0316816001600160a01b03161461052357604051638baa579f60e01b815260040160405180910390fd5b5050506001600160a01b039093165f8181526020818152604080832080546001600160a01b03199081163390811790925590845260018084529184208054928301815584529190922090910180549091169091179055505050565b5f6202a30067ffffffffffffffff164201905063389a75e1600c52335f52806020600c2055337fdbf36a107da19e49527a7176a1babf963b4b0ff8cde35ee35d6cd8f1f9ac7e1d5f80a250565b6001600160a01b0381165f9081526002602090815260408083205460018352818420805483518186028101860190945280845291949390919083018282801561063b57602002820191905f5260205f20905b81546001600160a01b0316815260019091019060200180831161061d575b505050505090505f5b815181101561069f5760025f83838151811061066257610662611037565b60200260200101516001600160a01b03166001600160a01b031681526020019081526020015f205483610695919061104b565b9250600101610644565b5050919050565b6106ae610cd3565b8281146106ce5760405163512509d360e11b815260040160405180910390fd5b5f5b83811015610728576107208585838181106106ed576106ed611037565b90506020020160208101906107029190610d45565b84848481811061071457610714611037565b905060200201356109ca565b6001016106d0565b5050505050565b6001600160a01b038181165f9081526020819052604090205416331461076857604051632d9523d760e11b815260040160405180910390fd5b6001600160a01b0381165f9081526020818152604080832080546001600160a01b031916905533835260019091528120905b815481101561088d57826001600160a01b03168282815481106107bf576107bf611037565b5f918252602090912001546001600160a01b03160361088557815482906107e89060019061105e565b815481106107f8576107f8611037565b905f5260205f20015f9054906101000a90046001600160a01b031682828154811061082557610825611037565b905f5260205f20015f6101000a8154816001600160a01b0302191690836001600160a01b031602179055508180548061086057610860611071565b5f8281526020902081015f1990810180546001600160a01b0319169055019055505050565b60010161079a565b505050565b63389a75e1600c52335f525f6020600c2055337ffa7b8eab7da67f412cc9575ed43464468f9bfbae89d1675917346ca6d8fe3c925f80a2565b6001600160a01b0381165f908152600260205260409020546060906103e88110610912575050604080518082019091526005815264109054d15160da1b6020820152919050565b610352811061093d57505060408051808201909152600481526311dbdb1960e21b6020820152919050565b6101f4811061096a57505060408051808201909152600681526529b4b63b32b960d11b6020820152919050565b6064811061099657505060408051808201909152600681526542726f6e7a6560d01b6020820152919050565b50506040805180820190915260068152654e6f7669636560d01b6020820152919050565b5f6109c482610b31565b92915050565b6109d2610cd3565b6001600160a01b039091165f90815260026020526040902055565b6109f5610cd3565b6109fe5f610ced565b565b600f60f81b6060805f808083610a4960408051808201825260088152674261736552616e6b60c01b602080830191909152825180840190935260018352603160f81b9083015291565b97989097965046955030945091925090565b6001600160a01b0381165f90815260016020908152604091829020805483518184028101840190945280845260609392830182828015610ac257602002820191905f5260205f20905b81546001600160a01b03168152600190910190602001808311610aa4575b50505050509050919050565b610ad6610cd3565b63389a75e1600c52805f526020600c208054421115610afc57636f5e88185f526004601cfd5b5f9055610b0881610ced565b50565b610b13610cd3565b8060601b610b2857637448fbae5f526004601cfd5b610b0881610ced565b7f00000000000000000000000000000000000000000000000000000000000000007f000000000000000000000000000000000000000000000000000000000000000030147f0000000000000000000000000000000000000000000000000000000000000000461416610c245750604080517f8b73c3c69bb8fe3d512ecc4cf759cc79239f7b179b0ffacaa9a75d522b39400f81527f000000000000000000000000000000000000000000000000000000000000000060208201527f00000000000000000000000000000000000000000000000000000000000000009181019190915246606082015230608082015260a090205b6719010000000000005f5280601a5281603a52604260182090505f603a52919050565b5f604051825160408114610c635760418114610c845750610cbf565b604084015160ff81901c601b016020526001600160ff1b0316606052610c97565b60608401515f1a60205260408401516060525b50835f5260208301516040526020600160805f60015afa5191505f606052806040523d610ccc575b638baa579f5f526004601cfd5b5092915050565b638b78c6d8195433146109fe576382b429005f526004601cfd5b638b78c6d81980546001600160a01b039092169182907f8be0079c531659141344cd1fd0a4f28419497f9722a3daafe3b4186f6b6457e05f80a355565b80356001600160a01b0381168114610d40575f80fd5b919050565b5f60208284031215610d55575f80fd5b610d5e82610d2a565b9392505050565b5f805f8060608587031215610d78575f80fd5b610d8185610d2a565b935060208501359250604085013567ffffffffffffffff80821115610da4575f80fd5b818701915087601f830112610db7575f80fd5b813581811115610dc5575f80fd5b886020828501011115610dd6575f80fd5b95989497505060200194505050565b5f8083601f840112610df5575f80fd5b50813567ffffffffffffffff811115610e0c575f80fd5b6020830191508360208260051b8501011115610e26575f80fd5b9250929050565b5f805f8060408587031215610e40575f80fd5b843567ffffffffffffffff80821115610e57575f80fd5b610e6388838901610de5565b90965094506020870135915080821115610e7b575f80fd5b50610e8887828801610de5565b95989497509550505050565b5f81518084525f5b81811015610eb857602081850181015186830182015201610e9c565b505f602082860101526020601f19601f83011685010191505092915050565b602081525f610d5e6020830184610e94565b5f60208284031215610ef9575f80fd5b5035919050565b5f8060408385031215610f11575f80fd5b610f1a83610d2a565b946020939093013593505050565b60ff60f81b881681525f602060e06020840152610f4860e084018a610e94565b8381036040850152610f5a818a610e94565b606085018990526001600160a01b038816608086015260a0850187905284810360c0860152855180825260208088019350909101905f5b81811015610fad57835183529284019291840191600101610f91565b50909c9b505050505050505050505050565b602080825282518282018190525f9190848201906040850190845b81811015610fff5783516001600160a01b031683529284019291840191600101610fda565b50909695505050505050565b634e487b7160e01b5f52601160045260245ffd5b5f600182016110305761103061100b565b5060010190565b634e487b7160e01b5f52603260045260245ffd5b808201808211156109c4576109c461100b565b818103818111156109c4576109c461100b565b634e487b7160e01b5f52603160045260245ffdfea2646970667358221220f9aa0a474c96f4329acf34415ce82fd30463904571fc9aaf7dae3610eba8a80664736f6c63430008170033","linkReferences":{}},"methodIdentifiers":{"batchUpdateScores(address[],uint256[])":"340458da","cancelOwnershipHandover()":"54d1f13d","completeOwnershipHandover(address)":"f04e283e","eip712Domain()":"84b0196e","getAggregatedScore(address)":"26f97f77","getLinkedWallets(address)":"cdb0ec6b","hashTypedData(bytes32)":"6575f6aa","linkWallet(address,uint256,bytes)":"16b75f61","nonces(address)":"7ecebe00","owner()":"8da5cb5b","ownershipHandoverExpiresAt(address)":"fee81cf4","renounceOwnership()":"715018a6","reputationScores(address)":"fe0438b2","reputationTiers(address)":"552b94ec","requestOwnershipHandover()":"25692962","transferOwnership(address)":"f2fde38b","unlinkWallet(address)":"5027dbe2","updateScore(address,uint256)":"65d97724","walletLinks(address)":"025ee648"},"id":21}